:100000000C945D000C9485000C9485000C94850084
:100010000C9485000C9485000C9485000C9485004C
:100020000C9485000C9485000C9485000C9485003C
:100030000C9485000C9485000C9485000C9485002C
:100040000C9467020C9485000C9485000C94850038
:100050000C9485000C9485000C9485000C9485000C
:100060000C9485000C94850000000008000201003B
:100070000003040700000000000000000000000072
:10008000250028002B0000000000240027002A0083
:10009000040404040404040402020202020203032E
:1000A0000303030301020408102040800102040836
:1000B00010200102040810205D0311241FBECFEFA1
:1000C000D8E0DEBFCDBF11E0A0E0B1E0E4E5F7E0AD
:1000D00002C005900D92AA31B107D9F721E0AAE13B
:1000E000B1E001C01D92AB33B207E1F710E0CDE5FE
:1000F000D0E004C02197FE010E949D03CC35D107BA
:10010000C9F70E94B1020C94A8030C94000090E07F
:10011000FC01EC55FF4F2491FC01E057FF4F849107
:10012000882399F090E0880F991FFC01EA57FF4F50
:10013000A591B491FC01E458FF4F859194918FB73C
:10014000F894EC91E22BEC938FBF089590E0FC01C2
:10015000E859FF4F2491FC01EC55FF4F3491FC010D
:10016000E057FF4FE491EE2309F43CC0222339F11C
:10017000233091F038F42130A9F0223001F584B514
:100180008F7D12C0273091F02830A1F02430B9F4CF
:10019000809180008F7D03C0809180008F77809355
:1001A00080000DC084B58F7784BD09C08091B000F8
:1001B0008F7703C08091B0008F7D8093B000F0E016
:1001C000EE0FFF1FE458FF4FA591B4919FB7F8942D
:1001D000611104C08C913095382302C0EC913E2B04
:1001E0003C939FBF0895CF92DF92EF92FF920F93BF
:1001F0001F93CF93DF936C017A018B01C0E0D0E0B5
:10020000CE15DF0581F0D8016D918D01D601ED91FC
:10021000FC910190F081E02DC6010995892B11F028
:100220002196EECF7E01C701DF91CF911F910F91F3
:10023000FF90EF90DF90CF900895CF93DF93EC0184
:1002400060E08E810E94A60061E08E810E94A6007F
:1002500060E08E810E94A6008BE891E00197F1F7A3
:10026000DF91CF910895CF92DF92EF92FF920F939B
:100270001F93CF93DF936C017C0187E0E80EF11CA4
:10028000C0E0D0E0062F10E0B8010C2E02C075953A
:1002900067950A94E2F76170F70181917F010E94EE
:1002A000A6002196C430D10579F7C601DF91CF9120
:1002B0001F910F91FF90EF90DF90CF900C941D0154
:1002C000CF92DF92EF92FF920F931F93CF93DF9322
:1002D000EC01F62E642F8C810E94A6008D818F3F49
:1002E00019F060E00E94A6008F850F2D10E084FFBA
:1002F00025C06E0187E0C80ED11CE12CF12CB8019D
:100300000E2C02C0759567950A94E2F76170F601AC
:1003100081916F010E94A600FFEFEF1AFF0A88E0AB
:10032000E816F10461F7CE01DF91CF911F910F9193
:10033000FF90EF90DF90CF900C941D01B80184E006
:10034000759567958A95E1F7CE010E9433016F2D6F
:10035000CE01DF91CF911F910F91FF90EF90DF9031
:10036000CF900C94330140E0682F83E291E00C942D
:100370006001CF93DF93823028F090913201986032
:1003800090933201809336011092370180E480937C
:10039000380180E18093390180E580933A018091B2
:1003A00027010E948700809128018F3F11F00E9451
:1003B0008700809129010E948700C3E2D1E09E015D
:1003C000235231408091320184FD03C084E090E0EB
:1003D00002C088E090E021962817390724F48E8126
:1003E0000E948700ECCF8BE39DE00197F1F760E07E
:1003F000809127010E94A60060E0809129010E945F
:10040000A600809128018F3F19F060E00E94A600AD
:100410008091320184FD20C063E083E291E00E947C
:100420003301CBE4D6E4CE010197F1F763E083E238
:1004300091E00E9433012197F1F763E083E291E0BC
:100440000E94330183E592E00197F1F762E083E2D5
:1004500091E00E94330115C080620E94B3018BE4D9
:1004600096E40197F1F78091320180620E94B30116
:1004700083E592E00197F1F78091320180620E945A
:10048000B3018091320180620E94B30184E08093C5
:1004900033018CE00E94B30181E00E94B3018BE341
:1004A0009FE10197F1F782E08093340186E0DF91CC
:1004B000CF910C94B30141E00E94600181E090E093
:1004C0000895089580E090E008950E94A3031F928C
:1004D0000F920FB60F9211242F933F938F939F93F8
:1004E000AF93BF9380911F0190912001A0912101B2
:1004F000B091220130911E0123E0230F2D3720F40B
:100500000196A11DB11D05C026E8230F0296A11D6D
:10051000B11D20931E0180931F0190932001A09391
:100520002101B093220180911A0190911B01A091A9
:100530001C01B0911D010196A11DB11D80931A01EE
:1005400090931B01A0931C01B0931D01BF91AF912B
:100550009F918F913F912F910F900FBE0F901F9001
:100560001895CF93DF93CDB7DEB7A1970FB6F89468
:10057000DEBF0FBECDBF789484B5826084BD84B5E4
:10058000816084BD85B5826085BD85B5816085BD8E
:1005900080916E00816080936E0010928100809146
:1005A00081008260809381008091810081608093CE
:1005B0008100809180008160809380008091B100F3
:1005C00084608093B1008091B00081608093B0001E
:1005D00080917A00846080937A0080917A008260B2
:1005E00080937A0080917A00816080937A00809174
:1005F0007A00806880937A001092C10082E00E94A5
:10060000B9014DE050E06CE071E083E291E00E94BE
:10061000F30088EEC82E83E0D82EE12CF12C9AE06E
:10062000492E512C612C712C20E0A22E20E0B22EFC
:10063000E0913601E23010F4E15001C0E1E0F0E079
:10064000ED5DFE4F848980680E94B3012FB7F89456
:1006500060911F01709120018091210190912201F0
:100660002FBFA70196010E947B0319A28E010F5D87
:100670001F4FCA01B901A30192010E947B03605D73
:10068000F80162938F01211531054105510589F764
:10069000309761F001900020E9F73197AF01401BDE
:1006A000510BB80183E291E00E94F300A114B10460
:1006B00009F4BECF0E940000BBCFE3E2F1E0138259
:1006C000128284E091E0918380838CE084838FEFB9
:1006D00085838AE0868389E0878388E0808787E056
:1006E000818786E08287138614861586168617868C
:1006F00081E00C94B901A1E21A2EAA1BBB1BFD01DB
:100700000DC0AA1FBB1FEE1FFF1FA217B307E407F0
:10071000F50720F0A21BB30BE40BF50B661F771F48
:10072000881F991F1A9469F7609570958095909528
:100730009B01AC01BD01CF010895EE0FFF1F059095
:10074000F491E02D099481E090E0F8940C94A803D2
:04075000F894FFCF4B
:10075400000000005B02F3006202610268656C6CD9
:0A0764006F2C20776F726C64210087
:107E0000112484B714BE81FFF0D085E080938100F7
:107E100082E08093C00088E18093C10086E0809377
:107E2000C20080E18093C4008EE0C9D0259A86E02C
:107E300020E33CEF91E0309385002093840096BBD3
:107E4000B09BFECF1D9AA8958150A9F7CC24DD24C4
:107E500088248394B5E0AB2EA1E19A2EF3E0BF2EE7
:107E6000A2D0813461F49FD0082FAFD0023811F036
:107E7000013811F484E001C083E08DD089C08234E0
:107E800011F484E103C0853419F485E0A6D080C0E4
:107E9000853579F488D0E82EFF2485D0082F10E0AE
:107EA000102F00270E291F29000F111F8ED06801E7
:107EB0006FC0863521F484E090D080E0DECF843638
:107EC00009F040C070D06FD0082F6DD080E0C81688
:107ED00080E7D80618F4F601B7BEE895C0E0D1E017
:107EE00062D089930C17E1F7F0E0CF16F0E7DF06D8
:107EF00018F0F601B7BEE89568D007B600FCFDCFD4
:107F0000A601A0E0B1E02C9130E011968C91119780
:107F100090E0982F8827822B932B1296FA010C0160
:107F200087BEE89511244E5F5F4FF1E0A038BF0790
:107F300051F7F601A7BEE89507B600FCFDCF97BE46
:107F4000E89526C08437B1F42ED02DD0F82E2BD052
:107F50003CD0F601EF2C8F010F5F1F4F84911BD097
:107F6000EA94F801C1F70894C11CD11CFA94CF0C13
:107F7000D11C0EC0853739F428D08EE10CD085E9AC
:107F80000AD08FE07ACF813511F488E018D01DD067
:107F900080E101D065CF982F8091C00085FFFCCF94
:107FA0009093C60008958091C00087FFFCCF809118
:107FB000C00084FD01C0A8958091C6000895E0E648
:107FC000F0E098E1908380830895EDDF803219F02E
:107FD00088E0F5DFFFCF84E1DECF1F93182FE3DFCA
:107FE0001150E9F7F2DF1F91089580E0E8DFEE27F6
:047FF000FF270994CA
:027FFE00040479
:0400000300007E007B
:00000001FF
